:020000040800F2
:10000000E0310020350200086B2C0008C5240008F0
:10001000672C0008131B0008D93A000800000000F4
:100020000000000000000000000000007133000824
:10003000D120000800000000D73100082138000856
:100040004F0200084F0200084F0200084F0200084C
:100050004F0200084F0200084F0200084F0200083C
:100060004F0200084F0200084F0200084F0200082C
:100070004F0200084F0200084F0200084F0200081C
:100080004F0200084F0200084F0200084F0200080C
:100090004F0200084F0200084F0200084F020008FC
:1000A0004F0200084F0200084F0200084F020008EC
:1000B000853800084F0200084F0200084F02000870
:1000C0004F0200084F0200084F0200084F020008CC
:1000D0004F0200084F0200084F0200084F020008BC
:1000E0004F0200084F0200084F02000800F002F81B
:1000F00000F090F80AA090E8000C82448344AAF132
:100100000107DA4501D100F085F8AFF2090EBAE82F
:100110000F0013F0010F18BFFB1A43F0010318473B
:10012000A0540000C0540000103A24BF78C878C121
:10013000FAD8520724BF30C830C144BF04680C60ED
:10014000704700000023002400250026103A28BF35
:1001500078C1FBD8520728BF30C148BF0B60704739
:100160006E2900F07B81702900F0BD82662904F0C1
:100170007583652904F07283672904F06F83612910
:1001800004F06E8303681B0A28BF41F080016929CF
:1001900000F02881642900F02581752900F0228172
:1001A0006F2900F04A82782900F08982E92900F05D
:1001B000E581E42900F0E281F52900F0DF81EF29F3
:1001C00000F04782F82900F088820368DB0928BF25
:1001D00041F08001632900F08B87732900F090873C
:1001E000E32900F09B87F32900F0A08700207047E7
:1001F0001FB500F0F1FF04000020002104F018FBFF
:10020000401C60600020002104F0FCFAE0601FBD8B
:1002100010B510BD00F0B2FF1146FFF7E9FF03F083
:10022000B7FD01F08FF803B4FFF7F2FF03BC01F054
:1002300093F800000948804709480047FEE7FEE7B9
:10024000FEE7FEE7FEE7FEE7FEE7FEE7FEE7FEE786
:1002500004480549054A064B704700002538000848
:10026000ED000008E02B0020E0310020E02D002010
:10027000E02D00201CB50C46064B7B4469460090DF
:10028000204600F004F904460020694600F012F907
:1002900020461CBD370200004FF0013C50F8042BF3
:1002A00051F8043B9A4221D1A2EB0C03934313EA89
:1002B000CC1317D150F8042B51F8043B9A4215D1B6
:1002C000A2EB0C03934313EACC130BD150F8042B8D
:1002D00051F8043B9A4209D1A2EB0C03934313EA71
:1002E000CC13DBD04FF00000704700BFD01A01BA2A
:1002F000B1FA81F101F0180122FA01F0CB40C1F10D
:100300002001DBB2C0B2C01A2CFA01F3D11A91431A
:1003100011EAC311E6D1704770477047704770B556
:10032000044685690068C10601D5302600E0202614
:10033000C00707D070BDD4E9012130469047206A3C
:10034000401C20626D1EF6D570BD70B504468569EF
:100350000078C00707D170BDD4E901212020904763
:10036000206A401C20626D1EF6D570BD09684A05E2
:1003700001D540B27047C905FCD500B27047096885
:100380004A0501D5C0B27047C905FCD580B2704797
:1003900070B50C460546012A05D02878800600D5A0
:1003A000EA69002302E0012305E05B1C934202D2CC
:1003B000E05C0028F9D1A869E618C01AA861286A8B
:1003C000184428622846FFF7AAFF04E0D5E9012176
:1003D00014F8010B9047B442F8D32846FFF7B5FF55
:1003E00070BD00002DE9F041064600241068752913
:1003F000314616A510D0FFF7B9FF002802DA4042B7
:1004000013A507E031688A0701D512A502E0490764
:1004100004D511A5012401E0FFF7B1FF00210A2254
:1004200006F1240709E0B0FBF2FCB0FBF2F302FB9B
:100430001C00303078541846491C0028F3D123465C
:100440002A463046BDE8F04100F061BA00000000E5
:100450002D0000002B000000200000001168026841
:10046000006A530501D508700AE0D30501D508805C
:1004700006E0130603D5C217C1E9000200E00860D8
:100480000120704701694A1C02610878704700B575
:100490008FB0CDE901310021059105497944CDE9BD
:1004A00003101146684600F029F90FB000BD0000A6
:1004B000E5FFFFFF0A6802F8010B0A6070470000C1
:1004C0002DE9FF5F15468A460446DFF8AC80F84404
:1004D0000027D8E900103E46CDE9001010E03AF8B8
:1004E00016106A4602A800F025FE411C07D02178AC
:1004F000890603D5E269391891420DD80744761C64
:100500002078800602D5E069B84205DDAE42E6DB20
:100510003AF816000028E2D1A069C01BA06120466D
:10052000FFF7FDFED8E90010CDE90010002017E02C
:100530003AF818106A4602A800F0FCFDB0F1FF3F3F
:1005400081460BD000250DF1080B05E0D4E901210F
:100550001BF8050090476D1C4D45F7D308F10100CD
:10056000B0428046E4DB206A384420622046FFF730
:10057000ECFEBDE8FF9F0000F24F00002DE9F041C6
:100580008046D21D22F007020025D2E90002F5299B
:1005900015A614D0011E72F1000106DA0023D0EB7B
:1005A000030063EB020211A608E0D8F800108B07E5
:1005B00001D50FA602E0490701D50EA60125114677
:1005C000002408F1240704E000F05CF930323A55C9
:1005D000641C50EA0102F7D12B46324621464046C0
:1005E000BDE8F04100F093B9000000002D000000CC
:1005F0002B0000002000000030B4002100F1240492
:1006000008E002F00705D208303542EA4372DB0801
:100610006554491C52EA0305F3D10468002310A273
:10062000250707D5A40600D421B1C46901230DA272
:10063000641EC46130BC00F06AB910B5044621469E
:100640001068FFF79CFE02462046BDE810400023DC
:10065000D2E7D21D22F00701D1E90023CCE7000048
:100660000000000030000000F0B40D4601880905CC
:1006700002D5214C7C4402E01F4C7C440E34002106
:1006800000F1240608E002F00F071209E75D42EAD4
:1006900003721B097754491C52EA0307F3D102780D
:1006A0000023120704D5702D06D009B1022311349E
:1006B0002246F0BC00F02BB901231034F8E770B5E6
:1006C00004460D4621461068FFF759FE02462946AA
:1006D0002046BDE870400023C6E7D21D22F0070384
:1006E000D3E90023C0E70368126843F020030360E6
:1006F0000823C3610023B7E7544E00002DE9F05FE3
:10070000894604464FF0000ADFF874B1FB44C0F894
:1007100020A02046E1688847002874D0252806D00C
:10072000D4E901219047206A401C2062F1E70026AD
:100730005F462046E16888472028054607DB312DC3
:1007400005D2781910F8200C08B10643F1E7B0077C
:1007500001D526F00406C4F81CA00027C4F818A090
:100760002A2D09D0284603F0CDF938B304EB8708C9
:10077000303DC8F8185019E059F8041B204604EB26
:1007800087029161E1688847012F054618D1E06929
:10079000002820DA26F020061DE0D8F8180000EB2B
:1007A000800005EB40003038C8F818002046E168AA
:1007B0008847054603F0A6F90028EED1012F0AD09C
:1007C0002E2D08D12046E16888477F1C0546022F60
:1007D00046F02006C4DBA069002803DA404246F058
:1007E0000106A061F00701D026F010066C2D0BD099
:1007F000682D09D04C2D39D06A2D35D0742D35D0C7
:100800007A2D33D016E038E0E1682F46204688473D
:10081000B842054609D16C2F26D04FF48060E168BC
:10082000064320468847054604E06C2F1AD04FF453
:10083000807006430DB3A5F14100192802D8203578
:1008400046F400664A462946204626604E46FFF793
:1008500087FC80B101280BD0F61D26F0070000F1BF
:10086000080956E74020E4E78020D8E70020D6E7D3
:1008700006F104094DE7284652E7206ABDE8F09FDB
:10088000E44D000030B5B0F10A024FEA900E71F16C
:1008900000034EEA817EB0EB0E0061EB91014FEA5E
:1008A000101E4EEA017E10EB0E0041EB11114FEAD3
:1008B000102E4EEA016E10EB0E0041EB11214FEAB3
:1008C000104E4EEA014E10EB0E0041EB1141401864
:1008D00041F100014FEAD00040EA41704FEAD101F6
:1008E00010EB80054FEA810444EA907444EB010464
:1008F0006D1944EB0404521BA3414FF0000348BFA1
:100900000A3200D530BD401C41F1000130BD2DE957
:10091000F0470D4699469246044600F124080168C6
:10092000880604D5E06921F01001216000E0012073
:10093000A84201DD471B00E00027A1697A1902EBFC
:100940000900081AA0612078C00602D42046FFF7EB
:10095000E6FC002608E0D4E901211AF806009047D9
:10096000206A401C761C20624E45F4DB2078C006CD
:100970000AD52046FFF7D3FC06E0D4E90121302058
:100980009047206A401C2062381EA7F10107F4DC62
:1009900007E0D4E9012118F805009047206A401CBF
:1009A0002062281EA5F10105F3DC2046FFF7CDFCEF
:1009B0002078000602D50220BDE8F0870120FBE781
:1009C00070472DE9FF4F0C461E464FF0FF378BB0A6
:1009D000D2E90001DDF860800A908A46C1F30A5529
:1009E00005B93D46002108464FF00000BAF1000F5E
:1009F00000F4400005DA00EB80004FF4400101EA0A
:100A000050004FEA9059B9F1010F00DDB9460A983C
:100A100050EA4A000ED044F61050A5F2FF35454387
:100A20002F14B8F1000F1ED07542291E1EDDC9F12A
:100A300000021CE0B8F1010F4FF0000001D030219E
:100A400003E0F24305E02154401CB042FBDB30469A
:100A50000022002121540B99C1F80880C1E900202F
:100A60000FB0BDE8F08FBD1B6D1CDEE74A4600DA13
:100A7000694206A800F0F4FB06AB93E8070003AB5D
:100A800083E8070050460A9900F06DFC8DE80700E6
:100A9000A0F500501F3800900398002D0ADD42F2A7
:100AA0001F014A460844002303A90390684600F04A
:100AB000D6FE09E0A0F500504A461F38002303A9DE
:100AC0000390684600F0E0FE8DE807000004000C8B
:100AD00003D04FF0FF30410800E01046B8F1000F9E
:100AE00003D00022009215461EE0751E05D4FFF7C4
:100AF000C9FE303262556D1EF9D5B3460122084356
:100B000002D000227F1C04E02078302801D100228E
:100B10007F1E002A099784D01DE0112D07DAFFF708
:100B2000B1FE303262556D1C50EA0102F5D1084326
:100B300002D00098C8B10EE00021681E05E0235CD9
:100B4000625C63542254401E491C8142F7DBAB4671
:100B5000A81B401E0990002004F80B000B98099A6E
:100B6000C0F80880C0E9002B7AE711264FF0000892
:100B700057E72DE9F04F88460446D21D22F00701C1
:100B800091B0D1E90001CDE90A0102F0A7FF0246C8
:100B90000B98C00F01D02D2007E02068810701D5F8
:100BA0002B2002E0202101EAC000032A099001D095
:100BB000072A05DB03464146204600F011FB0BE106
:100BC0002078800601D5E06900E00620B8F1650FC5
:100BD000814606D0B8F1660F18D0B8F1670F70D112
:100BE00031E00020B9F1110F009001DB112301E089
:100BF00009F101030AAA01A90CA8FFF7E2FEDDE949
:100C00000C70002609F10105834647E001204B46A0
:100C100000904FF000470AAA01A90CA8FFF7D1FEE7
:100C2000DDE90DB00C995D46002610B909F101000F
:100C30000D18B9EB050003D4C0F1FF3609F1010529
:100C4000A5EB09002BE0B9F1010F01DA4FF0010922
:100C50000020B9F1110F0090484601DD112300E09A
:100C600003460AAA01A90CA8FFF7ABFEDDE90C7048
:100C70004D4600268346207800070AD4AB4500DAAB
:100C80005D4601A8012D04DD411911F8011C302930
:100C900007D04F4502DA17F1040F04DA012082462B
:100CA0000FE06D1EEEE7002F02DCED1B3E4403E07B
:100CB000781CA84200DD7D1CB81B00F1010A4FF032
:100CC00000472078000703D4AA4501DB4FF0FF3A24
:100CD0000021B7F1004F0DF143088DF8431024D0E7
:100CE00002202B23002F01DA7F422D230A21021E2E
:100CF000A0F1010000DC5FB197FBF1FC97FBF1F282
:100D000001FB1C7C17460CF1300C08F801CDEEE716
:100D1000A8F1010003702188090501D5452100E0F3
:100D20006521A0F1010800F8011C09980FA9A1EBA9
:100D30000807FF1D00B10120411901EBEA70A1690C
:100D40003844081A401EA0612078C00602D420460C
:100D5000FFF7E5FA099828B1D4E901219047206A04
:100D6000401C20622078C00622D52046FFF7D7FA23
:100D70001EE0002E04DBB34502DD01A8805D00E02B
:100D80003020D4E901219047206A401C2062761C63
:100D9000AAF101005FEA000A0AD100F01DFAC0685A
:100DA0000168405CD4E901219047206A401C206220
:100DB000281EA5F10105DCDC07E0D4E9012118F8C3
:100DC000010B9047206A401C2062381EA7F10107E2
:100DD000F3DC2046FFF7B9FA032011B041E600002A
:100DE0002DE9F04F04460D46D21D22F0070089B0D0
:100DF000D0E900974846394602F070FE0246F80FE7
:100E000001D02D2307E02068810701D52B2302E0C4
:100E1000202101EAC0038DF820300BB1012000E051
:100E20000020032A824601D0072A04DB29462046F7
:100E300000F0D6F93FE12078800601D40D2500E0CE
:100E4000E569C7F30A560D2D49DA00214FEA175B11
:100E500008464FF00000002F00F4400007DA00EBD6
:100E600080004FF4400100EBD07001EA6000811572
:100E7000012901DD4FF0FF3100224FEA850CBCF162
:100E8000180F06D31346ACF118004FF08052C24041
:100E900003E04FF4801323FA0CF30CF10C0CBCF1BB
:100EA000200F04D3ACF1200C09FA0CF001E007FA92
:100EB0000CF000294FF0004801DD18B90FE00ED109
:100EC00040450CD319EB02095F4121B9404502D1DD
:100ED0009F4329EA0209BBEB175F00D0761C2088EC
:100EE000000502D57B48784402E07A4878441938F6
:100EF00008AA302302F80A30037C0AF10101002E0F
:100F00000AF1020A53546A4602DC4FF0300101E054
:100F10004FF031014FF001088DF8001002D0A6F219
:100F2000FF3603E059EA470100D06B4E002D02DC8A
:100F30002178090704D54FF002082E218DF8011001
:100F4000C44600210BE0C7F303433F01C35C491CC7
:100F50006D1E02F80830052908F1010801DA002D9C
:100F6000F1DC00210CE000EB1973491C1B786D1EAD
:100F7000082902F808304FEA091908F1010801DAD6
:100F8000002DF0DC21688B0602D516E0A8F10108DF
:100F9000E04505DD02EB080313F8013C302BF5D0EA
:100FA000B8F1000F09DD02EB080313F8013C2E2B0A
:100FB00003D1090701D4A8F10108002D05DD3E2168
:100FC00002F808106D1E08F10108407C002E02F89E
:100FD000080008F1010804DA2D20764202F8080022
:100FE00002E02B2002F808000A214FF47A708642B2
:100FF00008F101080BDB96FBF0F3303302F8083000
:1010000096FBF0F308F1010800FB136601E0642E83
:101010000CDB642096FBF0F3303302F8083096FBCB
:10102000F0F308F1010800FB136601E00A2E06DB6D
:1010300096FBF1F0303002F8080008F1010896FB49
:10104000F1F001FB1060303002F80800A16908F1EE
:10105000010808EB050202EB0A00081AA0612078DB
:10106000C00602D42046FFF75AF9216A08AE01EB08
:101070000A00206204E0D4E9012116F8010B904730
:10108000BAF1010AF7D22078C00602D52046FFF750
:1010900046F96E4609E016F8010B3E280FD0D4E958
:1010A00001219047206A401C2062B8F10108F2D269
:1010B0002046FFF74AF909B00320BDE8F08F206A07
:1010C0002844206203E0D4E90121302090476D1EBE
:1010D000EBD3F8E72E46000002FCFFFF10B5436992
:1010E00013B1AFF3008001E0FFF752F9012010BD0A
:1010F000127800F124010A7000224A700122EDE703
:1011000011684FF0FF32E9E710B5436913B1AFF34F
:10111000008001E0FFF7D4F9012010BD128800F132
:10112000240182840022C2840122EDE711684FF07D
:10113000FF32E9E770B516460C46054600F044F864
:10114000036893F80101012806D0FF2C0FD8185D21
:1011500068B101202C7070BDD3F8070132462146DA
:1011600003F2071303442846BDE8704018474FF0C8
:10117000FF3070BD004870477C2B00207546FFF79C
:10118000F9FFAE4605006946534620F00700854644
:1011900018B020B5FFF75CF8BDE820404FF000061E
:1011A0004FF000074FF000084FF0000B21F007014F
:1011B000AC46ACE8C009ACE8C009ACE8C009ACE892
:1011C000C0098D467047000010B500F005F8001DFD
:1011D00010BD00BF5D360000004870479C2B00200A
:1011E0002DE9F0411F46044603260168072A01F451
:1011F000006004DB08B116A505E016A503E008B100
:1012000015A500E015A521F010002060A069C01E02
:10121000A0610FB1401EA0612046FFF780F84FB1DA
:10122000D4E9012138469047206A401C2062C01C46
:10123000206206E0206AFAE7D4E9012115F8010BE3
:101240009047761EF8D22046FFF77FF8BDE8F08180
:101250004E414E006E616E00494E4600696E66005A
:101260002DE9F047814616468AB0354878440DC8C6
:101270008DE80D0032487844801C03AC0DC884E82A
:101280000D0041F69B300844372190FBF1F290FBB2
:10129000F1F5A5F1800501FB12041B3C02D5644267
:1012A000012000E00020DFF898A080460027FA44E3
:1012B000AAF1BE0A0EE0E0070AD03246684607EB04
:1012C000470101230AEB810100F0DEFA8DE80700F7
:1012D00064107F1C002CEED1194F7F44AE3F19E003
:1012E000E80715D007EB04100DF1180A90E80E007E
:1012F0008AE80E00C068F04201D198190890324681
:10130000012306A903A800F0BFFA03AB83E8070096
:101310006D10641C002DE3D14FF001033246694685
:10132000B8F1000F03A802D000F099FA01E000F034
:10133000ABFAC9E90001C9F808200AB0BDE8F08796
:101340003843000010B50446AFF300802046BDE8E6
:101350001040FEF768BF000001491820ABBEFEE751
:101360002600020070475FEA400C08BF91F0000FB2
:101370004FEA8C234FEAC12243EA51514FEA1C50F5
:1013800018BF00F5F0404FEA300018BF41F00041AF
:101390005FEA6C5C00F02980BCF1FF3F08BF40F0C1
:1013A00080407047130C06BF12044FF0100C4FF032
:1013B000000C130E04BF12020CF1080C130F04BF33
:1013C00012010CF1040C930F04BF92000CF1020CFB
:1013D000D30F04BF52000CF1010C11464FF0000274
:1013E000A0F11F00A0EB0C00704711F0004F08BFE8
:1013F000704731F000413FF4D5AF0B0C06BF090434
:101400004FF0100C4FF0000C0B0E04BF09020CF152
:10141000080C0B0F04BF09010CF1040C8B0F04BF67
:1014200089000CF1020CCB0F04BF49000CF1010C38
:10143000CCF12003A0EB0C0022FA03F302FA0CF229
:1014400041EA030100F10100704720F07F4C80EA7F
:10145000030023F07F47ACEB070303F57C5300F058
:10146000004003F1FF032DE980494FEA154B09B411
:101470004FEA144325EA0B4E24EA03480FF20426F0
:1014800006EB132749083E785FEA320203FB066742
:10149000C7F5000707FB06F64FEA54374FEAD64672
:1014A00006F1020607FB066CCCF1005C4FEA1C4714
:1014B0002CEA074C07FB06F40CFB06F504EB15467B
:1014C0004FEA961634BF00204FF000404FEAD13764
:1014D00006FB07FC4FEA1C4C0CFB0BF7D21B03FB73
:1014E0000CF761EB07010CFB0EF7B0EB074072EB5A
:1014F00017420CFB08F734BFA2EB0742B2EB0742DE
:1015000061EB17414FEA0C444FEA910706FB07FCD9
:101510004FEA1C4C0CFB0BF7B0EBC74072EB573299
:1015200003FB0CF734BFA2EBC742B2EBC74261EB3F
:1015300057310CFB0EF7B0EBC70072EB57720CFB88
:1015400008F734BFA2EBC702B2EBC70261EB5771D9
:10155000039F4FEA816141EA921104EBCC044FEA08
:10156000D1374FEA826206FB07FC42EA90124FEA4B
:1015700080604FEA1C4C0CFB0BF7D21B03FB0CF7F3
:1015800061EB07010CFB0EF7B0EB074072EB174263
:101590000CFB08F734BFA2EB0742B2EB074261EB4A
:1015A00017414FEA8C554FEA910704EB9C2406FB48
:1015B00007FC4FEA1C4C0CFB0BF7B0EBC74072EB7F
:1015C000573203FB0CF734BFA2EBC742B2EBC74262
:1015D00061EB57310CFB0EF7B0EBC70072EB5772A3
:1015E0000CFB08F734BFA2EBC702B2EBC70261EBFA
:1015F000577115EB4C254FEA816141EA92114FEA90
:1016000082624FEAD13742EA901206FB07FC44F1AE
:1016100000044FEA80604FEA1C4C0CFB0BF7D21B16
:1016200003FB0CF761EB07010CFB0EF7B0EB074077
:1016300072EB17420CFB08F734BFA2EB0742B2EB88
:10164000074261EB174115EB1C154FEA813141EA66
:1016500092414FEA823242EA90424FEA80304FEAAA
:101660000C7644F1000448EA03434EEA0B484FF07D
:10167000000EB2EB080C71EB030724BF624639463B
:101680004EEB0E0E4FF0000B0018524149414BEB50
:101690000B0BB2EB080C71EB03077BF1000B24BFC3
:1016A000624639464EEB0E0E4FF0000B00185241C9
:1016B00049414BEB0B0BB2EB080C71EB03077BF1D1
:1016C000000B24BF624639464EEB0E0E51EA02076C
:1016D00018BF46F0010616EB0E7655F1000254F1E4
:1016E000000103D5BDE88901BDE80088BDE8890196
:1016F000BDE80048B619524141EB0101A3F10103D5
:10170000704780807F7E7D7C7B7A7978777676756E
:101710007473727171706F6E6E6D6C6C6B6A6A69E6
:101720006868676666656464636362616160605F80
:101730005F5E5E5D5D5C5C5B5B5A5A5959585857F9
:101740005756565555555454535352525251515061
:1017500050504F4F4F4E4E4D4D4D4C4C4C4B4B4BB4
:101760004A4A4A49494948484847474747464646FA
:101770004545454444444443434343424242424135
:101780004141002B9C4630D477002BD01CB54FEA4A
:10179000370703B44FF010004FF01001BAF1000FFB
:1017A00006D0BCF1000FDCBF40F0080040F008019B
:1017B0004FF000000FBCBDE810400BF1010BBBF176
:1017C000010F08BF5FEA170722BF12F1010211F1F2
:1017D00001014FF0004143F1000300F0004043EAF3
:1017E00000007047F9D35708D0E746EA064613F1E0
:1017F000400F4FEA16461FDD13F1200FDFBF1643DF
:101800000A46002120335B42BED0C3F1200746EADE
:10181000064602FA07F74FEA164646EA0706C3F1FC
:10182000200722FA03F201FA07F721FA03F14FF039
:10183000000342EA0702A7E746EA020646EA06462E
:101840004FEA164646EA0106BCBF46EA0646360C93
:101850004FF000034FF000024FF0000194E72DE934
:10186000804C9A46934670B491E8380007C831EA34
:10187000400C48BF34EA430C03D5FFF7E6FDFFF701
:1018800080FFF0BCBDE8008C2DE9804C9A46934661
:1018900070B491E8380007C810F0804F08BF13F00B
:1018A000804F03D100F005F8FFF76BFFF0BCBDE8F7
:1018B000008C20F07F4780EA030023F07F4C07EB89
:1018C0000C03A3F57C5300F00040A3F1FE0392F05B
:1018D000000F00F0B38095F0000F00F077802DE945
:1018E00001494FEA11404FEA144621EA004800FB43
:1018F00006FC24EA064708FB06F607FB08F800FB8F
:1019000007F718EB06484CEB164C4FEA124B18EB56
:1019100007484FEA15464CEB174022EA0B4E0BFBEB
:1019200006FC25EA06470EFB06F607FB0EFE0BFB40
:1019300007F71EEB064E4CEB164C4FF000061EEB65
:10194000074E4CEB174B18EB0B0840F1000018EB5F
:101950000E0B58EB000840F100008F1A4FF0000109
:101960003CBFC943661B14BFB5EB040C00213CBF50
:10197000C943F61B4FEA17444EEA8E0E27EA044588
:101980004FEA1C4704FB07622CEA074C05FB07F7EC
:101990000CFB05F604FB0CFC16EB074642EB17426A
:1019A00016EB0C4642EB1C421BEB060658EB020200
:1019B000414146EA9E0601D5BDE80189B61952416A
:1019C00041EB0101A3F10103BDE801894FEA144590
:1019D0004FEA114724EA054621EA074C05FB07F4C4
:1019E00006FB07F70CFB06F105FB0CFC11EB0741AE
:1019F00044EB17444FEA124711EB0C4144EB1C44F3
:101A000022EA074C05FB07F206FB07F70CFB06F67C
:101A100005FB0CFC16EB074642EB174216EB0C4697
:101A200042EB1C456A1854F1000148BF7047B619D3
:101A3000524141EB0101A3F10103704795F0000F02
:101A400037D04FEA11424FEA144721EA024624EA0E
:101A5000074C02FB07F106FB07F70CFB06F402FB41
:101A60000CFC14EB074441EB17414FEA154714EB0C
:101A70000C4441EB1C4125EA074C02FB07F506FB31
:101A800007F70CFB06F602FB0CFC16EB074645EBD2
:101A9000174516EB0C4645EB1C42121951F100019B
:101AA00048BF7047B619524141EB0101A3F1010350
:101AB00070474FEA14454FEA114724EA054621EAE8
:101AC000074C05FB07F106FB07F70CFB06F24FF08E
:101AD000000605FB0CFC12EB074241EB174112EB31
:101AE0000C4251EB1C4148BF7047921841EB010179
:101AF000A3F1010370470146002901DA484270470B
:101B00000846FCE70146002901DA484270470846CA
:101B1000FCE700BFFEE7000008B50121042001F04A
:101B20006BFB10208DF803000002ADF800000320CD
:101B30008DF802006946044800F0D2FB4FF4805152
:101B4000014800F063FC08BD0008014010B54FF4E7
:101B50008051024800F05AFC10BD0000000801400E
:101B600010B54FF48051024800F04EFC10BD00004B
:101B70000008014003468B4201DA08467047934251
:101B800001DD1046FAE71846F8E710B501210420F8
:101B900001F032FB00F08EF8012000F0B1F810BD2A
:101BA00010B58021014800F026FC10BD000801405E
:101BB0002DE9FC4105460E4600200090019000F002
:101BC00079F8002000F09CF8142001F0C5FF0120F6
:101BD00000F096F81E2001F0E5FF00F05DF86421AA
:101BE000012000F079F810B10120BDE8FC816421EA
:101BF000002000F071F808B10120F6E7642101200F
:101C000000F06AF808B10120EFE7002427E0002780
:101C100021E04621002000F05FF808B10120E4E750
:101C2000282001F0BFFF1DF804004006000E0DF84B
:101C30000400FFF7B5FF28B11DF8040040F00100D3
:101C40000DF804006421012000F046F808B10120DD
:101C5000CBE7781CC7B2082FDBDB601CC4B2052CB5
:101C6000D5DB9DF800009DF8011008449DF8021096
:101C700008449DF803100844C0B29DF8041088423F
:101C800001D00120B1E79DF8000030709DF80200FE
:101C900028700020A9E7000008B58020ADF80000FA
:101CA00048208DF803006946014800F019FB08BD83
:101CB0000008014008B58020ADF8000010208DF824
:101CC000030003208DF802006946024800F008FB7B
:101CD00008BD00000008014070B504460D4609E04B
:101CE000281EA5F101018DB201D1012070BD012096
:101CF00001F058FFFFF754FFA042F1D00020F5E7B4
:101D000010B5044622468021014800F081FB10BD39
:101D100000080140014601F00F000A1102EB8202A7
:101D200000EB4200C0B2704701460A2091FBF0F27E
:101D300000FB12100A2291FBF2F240EA0210C0B23C
:101D4000704710B5022001F02DFF10BD1CB50446F0
:101D5000684600F099F89DF8001001F07F00FFF749
:101D6000D9FF60719DF80100FFF7D4FF20719DF845
:101D7000021001F03F00FFF7CDFFE0709DF8030077
:101D8000FFF7C8FFA0709DF80400FFF7C3FF607065
:101D90009DF80500FFF7BEFFA0719DF80600FFF754
:101DA000B9FF20701CBD000008B54FF48040ADF8AD
:101DB000000048208DF803006946024800F090FAC0
:101DC00008BD0000000C014008B54FF48040ADF89C
:101DD000000010208DF8030003208DF802006946F2
:101DE000014800F07DFA08BD000C014008B5012152
:101DF000082001F001FA4FF4E040ADF80000102097
:101E00008DF8030003208DF8020069460D4800F0AC
:101E100067FA4FF480510B4800F0F6FA4FF4005186
:101E2000084800F0F1FA4FF48041064800F0EEFA5D
:101E300000218E2000F02CF90021902000F028F9DC
:101E400008BD0000000C014010B5802000F06EF8C5
:101E5000C00910BD10B50020094908700948C069C3
:101E600000F0010050B14FF08040008800F0010008
:101E7000087000214FF0804001F053FD10BD0000BC
:101E8000390000200010024070B50546FFF7E2FF60
:101E90004FF40051114800F0B7FA4FF480510F4849
:101EA00000F0B4FABF2000F0CFF8002404E000F006
:101EB00017F82855601CC4B2082CF8DB4FF4805189
:101EC000064800F0A1FAFFF77FFF4FF48041034876
:101ED00000F09CFA00F0A6F870BD0000000C014074
:101EE00070B50025FFF760FF002419E04FF4804132
:101EF0000D4800F080FA18B10120A040C0B205439F
:101F00004FF40051084800F081FAFFF71AFF4FF430
:101F10000051054800F078FAFFF713FF601CC4B2C7
:101F2000082CE3DB284670BD000C014070B5044668
:101F3000FFF790FF4FF400510B4800F065FA4FF4A3
:101F40008051094800F062FA44F0010000F07CF88A
:101F5000FFF7C6FF05464FF48051034800F054FADE
:101F600000F060F8284670BD000C014070B50446D2
:101F700000218E2000F08CF88021084600F088F8BF
:101F80002079FFF7D1FE05462946822000F080F82F
:101F9000E078FFF7C9FE05462946842000F078F86E
:101FA000A078FFF7C1FE05462946862000F070F8AC
:101FB0006078FFF7B9FE05462946882000F068F8EA
:101FC000A079FFF7B1FE054629468A2000F060F8A7
:101FD0002078FFF7A9FE054629468C2000F058F826
:101FE0006079FFF7A1FE00F07F052946802000F010
:101FF0004FF880218E2000F04BF870BD10B5002105
:102000008E2000F045F88020FFF790FF044604F092
:102010007F01802000F03CF880218E2000F038F80D
:1020200010BD000010B50648C06900F0010030B1D5
:102030000448007818B10121880701F072FC10BD36
:10204000001002403900002070B50446FFF7BCFEC6
:10205000002517E004F001024FF480410B4800F026
:10206000D7F9FFF76EFE4FF40051084800F0CEF9A3
:10207000FFF767FE4FF40051044800F0C5F9641003
:10208000681CC5B2082DE5DB70BD0000000C0140E6
:1020900070B505460C46FFF7DDFE4FF400510B48C6
:1020A00000F0B2F94FF48051084800F0AFF928462B
:1020B000FFF7CAFF2046FFF7C7FF4FF480510348E0
:1020C00000F0A2F9FFF7AEFF70BD0000000C014068
:1020D000704700002DE9F04F85B004460E461746C4
:1020E0001D46DDE910ABDDE90E8900F007FE207921
:1020F000E178A2786378CDE90132CDE90310207848
:1021000043A3082200210090084600F012FF474830
:10211000007810BB46A3082210210020009600F092
:1021200008FF46A3082220210020009700F001FFAD
:102130000A2095FBF0F100FB115004900A2095FB5A
:10214000F0F00390DDE9030140A30822CDE900018E
:102150003021002000F0EDFE55E0344800780128E1
:1021600034D1B8F1000F08D03DA30822102100207F
:10217000CDF8008000F0DDFE05E03DA3082210212F
:10218000002000F0D6FEB9F1000F08D03BA30822D2
:1021900020210020CDF8009000F0CBFE05E03BA30D
:1021A00008222021002000F0C4FE139828B11298C4
:1021B00008B139A002E03AA000E03AA03AA3082210
:1021C00030210090002000F0B4FE1CE0149839A3E8
:1021D000082210210090002000F0ABFE38A3082256
:1021E00020210020CDF800A000F0A3FEBBF1000FDD
:1021F00001D036A000E036A036A30822302100909E
:10220000002000F096FE00F097FF05B0BDE8F08FCB
:102210003230253032642D253032642D2530326441
:1022200020253032643A2530326400003800002026
:10223000454E563A202530326420430048554D3AE9
:10224000202530326420252500000000424F4459EB
:102250003A253032642E25303164204300000000DE
:1022600048523A20253033642042504D000000008F
:1022700048523A202D2D2042504D000053704F32CD
:102280003A202530326420252500000053704F325B
:102290003A202D2D202525005249534B00000000E7
:1022A000455252004F4B00005354415455533A206D
:1022B00025730000535445503A202530366C750084
:1022C000504F53453A2025730000000059455300F4
:1022D0004E4F000046414C4C3A2025730000000050
:1022E0002DE9F041024600250026002000230024AD
:1022F000002791F803C00CF00F0591F803C00CF013
:10230000100CBCF1000F03D091F802C04CEA050597
:1023100091F800C0BCF1000F31D0146800202BE010
:102320004FF0010C0CFA00F3B1F800C00CEA030600
:102330009E4220D183004FF00F0C0CFA03F7BC43F0
:1023400005FA03FC4CEA040491F803C0BCF1280F21
:1023500006D14FF0010C0CFA00FCC2F814C00AE0E0
:1023600091F803C0BCF1480F05D14FF0010C0CFAF5
:1023700000FCC2F810C0401C0828D1D31460B1F88A
:1023800000C0BCF1FF0F34DD546800202EE000F1E6
:10239000080C4FF0010808FA0CF3B1F800C00CEA81
:1023A00003069E4221D183004FF00F0C0CFA03F775
:1023B000BC4305FA03FC4CEA040491F803C0BCF1E9
:1023C000280F05D100F1080C08FA0CF8C2F81480A7
:1023D00091F803C0BCF1480F07D100F1080C4FF091
:1023E000010808FA0CF8C2F81080401C0828CED367
:1023F0005460BDE8F0810246002093680B400BB1A9
:10240000012000E000207047416170470161704782
:102410000AB1016100E041617047000010B51D483C
:10242000B0F90000FFF767FB04461B48B0F9000055
:10243000FFF761FB84420EDD1648B0F90000FFF79C
:102440005AFB04461548B0F90000FFF754FB8442DC
:1024500001DD13A010BD1048B0F90000FFF74BFBE1
:1024600004460E48B0F90000FFF745FB844208DD42
:102470000948B0F90000002801DD0AA0EAE70BA036
:10248000E8E70648B0F90000002801DD09A0E1E70F
:102490000AA0DFE72A0000202600002028000020F4
:1024A00055500000534944452D52000053494445BE
:1024B0002D4C0000464143452D55500046414345B3
:1024C0002D444E0000BFFEE721B1028842F4806235
:1024D000028004E002884FF6FF331A400280704702
:1024E00070B502460024002500230020958A138B36
:1024F0001B0445EA030626F07F4404EA01068E42E7
:1025000001D1012000E0002070BD21B1028842F01D
:102510000102028004E002884FF6FE731A40028036
:10252000704721B1028842F48072028004E0028880
:102530004FF6FF631A400280704721B1028842F4CF
:102540000072028004E002884FF6FF531A400280B6
:10255000704700002DE9F04385B004460D46002683
:10256000B1460427DFF8CC80A6884FF6C07006403D
:10257000684600F051FEDDF808802F48B8FBF0F007
:102580001FFA80F946EA0906A68020884FF6FE71F8
:102590000840208000262949286888420CD82868ED
:1025A0004000B8FBF0F087B2042F00DA04273E4366
:1025B00009F10100208427E0E8884BF6FF7188428A
:1025C00006D1286800EB4000B8FBF0F087B209E0C4
:1025D000286800EBC00101EB0010B8FBF0F087B2F7
:1025E00047F48047C7F30B0008B947F0010747F4E9
:1025F000004006434FF4967009FB00F04FF47A71E7
:1026000090FBF1F0401C2084A683208840F001005C
:10261000208026884FF6F5300640A888698908434F
:1026200006432680A88929890843208105B0BDE892
:10263000F083000000127A0040420F00A0860100E3
:102640002DE9F04106460F46154601212748FFF7C0
:102650003BFF01212548FFF764FF2549234800F08F
:102660005AF80022D021214800F04AF821491F4899
:1026700000F051F831461D4800F04BF81D49891C07
:102680001A4800F048F801211848FFF74AFF184996
:10269000164800F040F80122D021144800F030F82C
:1026A0001349491C114800F036F8002416E0681E52
:1026B000C0B2A04207D100210C48FFF705FF01215D
:1026C0000A48FFF73AFF0A493F31084800F023F86B
:1026D000064800F011F83855601CC4B2AC42E6DB85
:1026E00001210248FFF7F0FEBDE8F08100580040EC
:1026F00001000300820007000146088AC0B270474B
:1027000012B141F0010102E04FF6FE73194001825F
:1027100070470182704770B504460D4642F210764C
:1027200003E0701E061E00D105E029462046FFF793
:10273000D7FE0128F5D100BF70BD000070B504467A
:102740000D4601211348FFF7ECFE13491148FFF72E
:10275000E2FF0022D0210F48FFF7D2FF0F490D48BA
:10276000FFF7D9FF21460B48FFF7D3FF0B49891E1E
:102770000848FFF7D0FF29460648FFF7CAFF074978
:10278000891C0448FFF7C7FF01210248FFF7D5FE67
:1027900070BD0000005800400100030082000700E7
:1027A00010B500200F4908600F48006820F00F00A6
:1027B0000D4908600846006840F0070008600020E6
:1027C0000A49C1F8A001022001F0ECF901200549F5
:1027D0000860022001F0E6F900200449C1F89C01DC
:1027E00010BD00009C812142040C01400080214268
:1027F00008B50121082000F0FFFC4FF4C070ADF8CF
:10280000000010208DF8030003208DF802006946B7
:102810000448FFF765FD0120034908600349C1F83A
:10282000A00108BD000C01409C8121420080214292
:1028300010B500200F4908600F48006820F00F0015
:102840000D4908600846006840F007000860012054
:102850000A49C1F8A001022001F0A4F901200549AC
:102860000860022001F09EF900200449C1F89C0193
:1028700010BD00009C812142040C014000802142D7
:1028800070B5054600241748006820F00F00154970
:1028900008600846006840F004000860002616E062
:1028A000002011490860022001F07CF901200F4945
:1028B000C1F89C016006040E0B487C38006808B122
:1028C000601CC4B2012001F06DF9701CC6B2082E64
:1028D000E6DB15B9FFF7ACFF01E0FFF761FF20462B
:1028E00070BD0000040C01409C8121420080214207
:1028F00070B504461548006820F00F0013490860C1
:102900000846006840F00700086000201049086091
:10291000002517E0E0090E49091D08606006040E55
:10292000022001F03FF901200A49C1F89C01022070
:1029300001F038F9002006490860022001F032F960
:10294000681CC5B2082DE5DB70BD0000040C014019
:102950009C8121420080214210B50F48006820F080
:102960000F000D4908600846006840F00700086045
:1029700001200A4908600A49C1F89C01042001F0BD
:1029800011F9002005490860042001F00BF900202E
:102990000349C1F89C0110BD040C0140A0812142F3
:1029A0000080214210B50F48006820F00F000D494B
:1029B00008600846006840F00700086000200A49E7
:1029C00008600A49C1F8A001042001F0EBF80120D9
:1029D000054908600549C1F8A001042001F0E2F8AA
:1029E00010BD0000040C01409C8121420080214266
:1029F00010B500241448006820F00F001249086048
:102A00000846006840F00400086001200F49086093
:102A100001F0C8F801200E49C1F89C0101F0C2F88C
:102A200007E0601CC4B2FA2C03DDFFF7BBFF0120F6
:102A300010BD0648803800680028F2D10349091FFC
:102A4000086000BFF4E70000040C0140A0812142AF
:102A5000008021423EB5002404E0204600F058FCEE
:102A6000601C84B2B4F5FA7FF7DB07480749084ACF
:102A7000084BCDE900210290074A08480168084840
:102A800001F06CFB3EBD000024000020200000206F
:102A90001C000020180000204C080020140000201A
:102AA0007C00002070B50D48B0F90000FFF723F856
:102AB00005460B48B0F90000FFF71DF8054409482A
:102AC000B0F90000FFF717F82C1841F27C5084424F
:102AD00001DD012070BD0020FCE700002600002081
:102AE000280000202A00002001464878012802DB47
:102AF00048780C2801DD002070478878012802DB27
:102B000088781F2801DD0020F6E7C878172801DD46
:102B10000020F1E708793B2801DD0020ECE7487947
:102B20003B2801DD0020E7E78879012802DB88796E
:102B3000072801DD0020DFE70120DDE710B50F48A1
:102B4000B0F90000FEF7D7FF42F6E061884211DCE1
:102B50000B48B0F90000FEF7CEFF42F6E061884274
:102B600008DC0848B0F90000FEF7C5FF42F6E06156
:102B7000884201DD012010BD0020FCE72C00002070
:102B80002E0000203000002008B50121042000F0B4
:102B900033FB0120ADF8000048208DF803006946A2
:102BA0000148FFF79DFB08BD0008014010B5012159
:102BB0000B48FFF720FC80B9142000F0CDFF012165
:102BC0000748FFF718FC40B900BF01210448FFF790
:102BD00012FC0028F9D0012010BD0020FCE7000005
:102BE000000801402DE9FF4704460D4617461E46E2
:102BF000DDE90C890E2269463B20FFF721FD9DF897
:102C000001009DF8001040EA012000B220809DF8EC
:102C100003009DF8021040EA012000B228809DF8D0
:102C200005009DF8041040EA012000B238809DF8AC
:102C300009009DF8081040EA012000B230809DF89C
:102C40000B009DF80A1040EA012000B2A8F800002D
:102C50009DF80D009DF80C1040EA012000B2A9F883
:102C60000000BDE8FF8700BFFEE7704710B54FF4D6
:102C7000A06000F039F810BD70B5002100230F22CC
:102C8000C47804B3154C246804F4E064C4F5E0642B
:102C9000210AC1F10403CA40447804FA03F184789C
:102CA0001440214309010E4C0678A155047804F024
:102CB0001F050124AC4005786D11AD0005F1E0253C
:102CC000C5F8004109E0047804F01F050124AC4078
:102CD000044D0678761145F8264070BD0CED00E0F5
:102CE00000E400E080E100E002490143024A116093
:102CF000704700000000FA050CED00E000200CE039
:102D0000002106E00022064B03EBC0135A544A1C74
:102D1000D1B28029F6DB421CD0B20828F0DB704724
:102D20007C2700202DE9F04304460D4616461F4639
:102D30007F2C01DDBDE8F0833F2D00DDFAE7A1190E
:102D4000802902DDC4F18001CEB2E919402902DDFB
:102D5000C5F14001CFB2284630E0234629E04FEAD2
:102D6000E07C00EB5C7C4FEAEC0CDFF85C8008EB6D
:102D7000CC1C1CF803C002464FEAE07800EB587800
:102D80004FEAE808A0EBC8094FF0010808FA09F873
:102D90002CEA080C01464FEAE07800EB58784FEA3D
:102DA000E808DFF8249009EBC81808F803C0591C9C
:102DB000CBB2A1199942D2DC411CC8B2E9198142B7
:102DC000CBDC00BFB6E700007C27002038B500242C
:102DD00006E0002500E06D1CB5F57A7FFBD3641C8E
:102DE000B4F57A7FF5D30121042000F005FA142010
:102DF0008DF8030003208DF802002020ADF80000BC
:102E000069460848FFF76CFA4020ADF800006946B3
:102E10000448FFF765FA012000F0A2F9012000F054
:102E2000A9F938BD0008014070B50546002411E03D
:102E300080212141294009B1012100E000210846FB
:102E400000F098F9012000F08BF9002000F088F9DB
:102E5000601CC4B2082CEBDB012000F081F90020DB
:102E600000F07EF970BD10B5012000F083F901205B
:102E700000F076F9002000F07DF9002000F070F9F4
:102E800010BD10B5002000F075F9012000F068F9C0
:102E9000012000F06FF910BD10B5FFF797FFAE20CD
:102EA00000F072F9D52000F06FF9802000F06CF985
:102EB000A82000F069F93F2000F066F9D32000F067
:102EC00063F9002000F060F9402000F05DF9A120D6
:102ED00000F05AF9C82000F057F9DA2000F054F950
:102EE000122000F051F9812000F04EF9CF2000F0BF
:102EF0004BF9D92000F048F9F12000F045F9DB202A
:102F000000F042F9302000F03FF9A42000F03CF935
:102F1000A62000F039F98D2000F036F9142000F0D9
:102F200033F9AF2000F030F9FFF7E8FE00F004F9C4
:102F300010BD0FB470B58AB005460E46144612A8EF
:102F4000019002A8019A1199FDF794F900200190CF
:102F5000234602AA3146284600F0D6F80AB070BCD3
:102F60005DF814FB70B505460C4645F0B00000F066
:102F70000BF9102141EA141000F006F904F00F00DB
:102F800000F002F970BD0000F8B506460F46144681
:102F90001D46082D0CD1A4F120000E4901EB0010B4
:102FA0001023082239460090304600F017F80FE051
:102FB000062D0DD1A4F1200000EB4000064901EBE5
:102FC00040000823062239460090304600F006F8FB
:102FD000F8BD000062490008524F00082DE9F04793
:102FE00007460C4690469946DDF820A07F2F01DD6C
:102FF000BDE8F0873F2C00DDFAE74B46424621460C
:103000003846FFF78FFE002570E0002669E0B8190A
:103010007F2800DD67E0E11704EB517105EBE1016A
:10302000072900DDE4E72046E21704EB527205EBC6
:10303000E202344B03EBC212BB19D25C2146E31708
:1030400004EB5373DB10A4EBC30305FB086C1AF805
:103050000CC00CFA03FC42EA0C02E31704EB5373B6
:1030600005EBE303DFF89CC00CEBC31307EB060C86
:1030700003F80C20E11704EB517105EBE101491C49
:10308000072900DD2BE02046E21704EB527205EB26
:10309000E202521C1B4B03EBC212BB19D25C21464D
:1030A000E31704EB5373DB10A4EBC303C3F1080372
:1030B00005FB086C1AF80CC04CFA03FC42EA0C023F
:1030C000E31704EB537305EBE3035B1CDFF834C039
:1030D0000CEBC31307EB060C03F80C2000BF701CAD
:1030E000C6B2464593DB00BF681CC5B2A9F101001A
:1030F000C11700EB5171012202EBE101A94284DC0E
:1031000000BF75E77C2700202DE9F0410646884680
:1031100015461F46002409E02A5D04FB0761C8B27A
:103120003B464146FFF730FF601CC4B2285D0028D3
:10313000F2D1BDE8F081000010B500240BE00021C1
:103140002046FFF70FFF054901EBC410802100F076
:103150002BF8601CC4B2082CF1DB10BD7C270020CA
:1031600010B50446224620210148FFF751F910BD51
:103170000008014010B50446224640210148FFF7EF
:1031800047F910BD0008014010B50446FFF76BFE7B
:103190007820FFF749FE0020FFF746FE2046FFF7A4
:1031A00043FEFFF76EFE10BD70B505460E46FFF7F5
:1031B0005AFE7820FFF738FE4020FFF735FE002446
:1031C00004E0285DFFF730FE601CC4B2B442F8DBB7
:1031D000FFF757FE70BD704729B1064AD269024316
:1031E000044BDA6104E0034AD2698243014BDA619D
:1031F000704700000010024029B1064A926902435C
:10320000044B9A6104E0034A92698243014B9A613C
:10321000704700000010024030B500210022002459
:1032200000232D4D6D6805F00C0121B1042905D056
:10323000082923D105E0294D056022E0274D0560CE
:103240001FE0254D6D6805F47012234D6D6805F47F
:103250008034022505EB92421CB9214D554305608F
:103260000BE01D4D6D6805F400351DB11C4D554337
:10327000056002E0194D5543056002E0174D0560F9
:1032800000BF00BF144D6D6805F0F0010909154D30
:103290006B5C0568DD4045600F4D6D6805F4E061CD
:1032A000090A104D6B5C4568DD4085600A4D6D680C
:1032B00005F46051C90A0B4D6B5C4568DD40C56083
:1032C000054D6D6805F44041890B074D6B5CC56881
:1032D000B5FBF3F5056130BD0010024000127A0025
:1032E00000093D00680000207800002010B500F0C3
:1032F0002DFD0446002C01DA002010BD04EB8400F3
:103300004100C81701EB1070C0F30F10F5E7000083
:1033100010B5044600BF124800680128FBD01149CF
:10332000072000F06AFE0F4800788007800B0D49E7
:10333000497840EA01200B49897808430A4941F855
:1033400024000848C0788007800B0649097940EAC4
:103350000120044949790843044941F8240010BD7B
:1033600024812142320000204C0800207C000020F3
:10337000704710B500F002F810BD00000CB5002039
:10338000019000903348006840F480303149086073
:1033900000BF3048006800F4003000900198401CE5
:1033A0000190009818B90198B0F5A06FF1D12948A3
:1033B000006800F4003010B10120009001E000200E
:1033C00000900098012843D12348006840F0100085
:1033D000214908600846006820F00300086008469C
:1033E000006840F0020008601A48406819494860C7
:1033F0000846406848600846406840F4806048607D
:103400000846406820F47C1048600846406840F454
:10341000E81048600846006840F08070086000BF0F
:103420000C48006800F000700028F9D00948406896
:1034300020F00300074948600846406840F0020059
:10344000486000BF0348406800F00C000828F9D12C
:103450000CBD0000001002400020024010B5002208
:103460000121880700F07AFA044804680122114615
:10347000900700F073FA204610BD00003C000020C9
:103480002DE9F04704460D4616461F46DDE908893A
:1034900000220121880700F061FA1048B0F900000D
:1034A00020800F48B0F9000028800E48B0F90000D5
:1034B00030800D48B0F9000038800C48B0F90000A9
:1034C000A8F800000A48B0F90000A9F8000001229D
:1034D0001146900700F042FABDE8F087580000203E
:1034E0005A0000205C0000205E00002060000020E8
:1034F0006200002000B589B000204B4908604B49AC
:1035000008604FF42F704A4908600020494908605C
:103510004949086049490880494908804949087073
:103520004949087049490870494908804949088053
:103530004949088049490880494908804949088023
:1035400001214948FFF748FE01210820FFF754FEFA
:103550001C208DF823004FF44060ADF820000320BC
:103560008DF8220008A94148FEF7BAFE0020ADF808
:1035700014004CF2503004904BF6FF70ADF816007A
:103580004FF48060ADF81A000001ADF81C00002077
:10359000ADF8180004A93648FEF7DCFF01213448D5
:1035A000FEF7B3FF01216B20FFF7C8F800216C2064
:1035B000FFF7C4F809211920FFF7C0F806211A20E7
:1035C000FFF7BCF818211B20FFF7B8F818211C20C2
:1035D000FFF7B4F8C720ADF8080041F61F40ADF87A
:1035E00004000020ADF80600ADF80A0001A94FF074
:1035F000804000F0BDF901221146900700F0AEF9BD
:103600001C208DF8000000208DF801008DF80200CC
:1036100001208DF803006846FFF72EFB0121880783
:1036200000F07FF909B000BD3C0000204000002000
:1036300044000020480000204C00002050000020E2
:1036400052000020540000205500002056000020A9
:103650005C0000205A00002058000020620000207A
:10366000600000205E00002001004000000C0140CE
:10367000005800402DE9F05F83460E461746544837
:103680000088401C524908805846FEF73BFA8246A3
:103690003046FEF737FA82443846FEF733FA0AEB33
:1036A00000054C48006818B94A480560BDE8F09F1D
:1036B00048490968C1EB41114819C11700EBD161B4
:1036C0004911444A116010460068A5EB00084249C0
:1036D000096801EB410101EB0800C11700EB917192
:1036E00089103D4A116010460068FEF70BFA3B490D
:1036F0000968C1EB411100EB010A4FEAEA700AEBDD
:10370000D06040113549086035480078192805DA3D
:1037100033480078401C32490870C7E72F490968D0
:10372000480041F294124FF42F71FEF723FA044639
:103730002C48007870B928480068A04209DD0120B3
:103740002849087000202849087023480068274944
:103750000860ABE724480078401C234908701E48E5
:10376000006822490968884203DD1B4800681F4938
:1037700008601D4800782D2803DD002019490870D5
:1037800094E704EBD471144A1268B2EB610F1DDAAE
:103790000F48008816490988401A1FFA80F9134813
:1037A0000068B0F57A5F0EDA1148008810B1B9F1FF
:1037B0000C0F08DB0F480068401C0E4908600448E5
:1037C00000880B49088000200649087000BF6DE79B
:1037D000500000204000002048000020440000204D
:1037E0005600002055000020540000204C0000200E
:1037F000520000203C000020042808D14FF0E021B6
:10380000096941F004014FF0E022116107E04FF037
:10381000E021096921F004014FF0E02211617047B5
:103820007047000010B51348006840F001001149CE
:10383000086008464068104908400E49486008463C
:1038400000680E4908400B4908600846006820F4EB
:10385000802008600846406820F4FE0048604FF46D
:103860001F008860FFF785FD4FF000600449086085
:1038700010BD0000001002400000FFF8FFFFF6FE40
:1038800008ED00E000B589B00121880700F055F887
:10389000A8B30121880700F041F803A804A905ABEB
:1038A00006AACDE9001007A908A8FFF79BF9BDF902
:1038B000200014490880BDF91C0013490880BDF997
:1038C000180012490880BDF9140011490880BDF99B
:1038D000100010490880BDF90C000F490880BDF99F
:1038E0000C00BDF91010CDE90010BDF91430BDF980
:1038F0001820BDF91C10BDF92000FFF7BBFE09B070
:1039000000BD0000580000205A0000205C0000208C
:103910005E0000206000002062000020CA43028296
:10392000704721B1028842F00102028004E002885F
:103930004FF6FE731A400280704730B502460020F1
:1039400000230024158A05EA0103958905EA01048C
:1039500013B10CB1012000E0002030BD1AB1838901
:103960000B43838102E083898B438381704700008E
:10397000002202881D4B98420ED01D4B98420BD05E
:10398000B0F1804F08D01B4B984205D01A4B98429B
:1039900002D01A4B984204D14FF68F731A404B88CD
:1039A0001A43174B984207D0164B984204D04FF653
:1039B000FF431A40CB881A4302808B8883850B888B
:1039C00003850A4B98420BD0094B984208D00E4B06
:1039D000984205D00D4B984202D00D4B984201D130
:1039E0000B7A03860123838270470000002C01407C
:1039F000003401400004004000080040000C00407A
:103A0000001000400014004000400140004401400C
:103A100000480140FEB505460E46642411E02748E3
:103A200050F82410A4F16400244A42F820102448DD
:103A300050F82410A4F16400214A42F82010601CC0
:103A400084B2B4F5FA7FEADB4FF4C87404E0204690
:103A5000FFF75EFC601C84B2B4F5FA7FF7DB19480F
:103A600019491A4A1A4BCDE900210290134A194804
:103A70000168134800F072FB12480078C8B113487F
:103A80000078B0B1104800681E2812DB0E480068AC
:103A9000DC280EDC0E48006846280ADB0C4800686B
:103AA000642806DC084800782870094800783070DF
:103AB00002E0002028703070FEBD00004C0800209D
:103AC0007C00002024000020200000201C0000209A
:103AD000180000201400002000BFFEE7490050EA53
:103AE000C12018BF04204A0D18BF40F0010040F269
:103AF000FF72B2EB515F08BF40F00200012808BF1F
:103B00000520704730380A2801D201207047002074
:103B10007047000010B56FF00400FFF76DFE0A4813
:103B200000680A49B0FBF1F00949087008460078BE
:103B300000EB4001C1EBC0104FF6FF7101EAC0007D
:103B40000449088010BD00000000002000127A0027
:103B500064000020660000200146114A12884A4392
:103B60004FF0E0235A6100229A611A46126942F02E
:103B700001021A6100BF4FF0E022106900F001025B
:103B80001AB100F48032002AF5D04FF0E022126919
:103B900022F001024FF0E0231A6100229A6170477F
:103BA000660000200146114A12784A434FF0E02394
:103BB0005A6100229A611A46126942F001021A61A2
:103BC00000BF4FF0E022106900F001021AB100F4CA
:103BD0008032002AF5D04FF0E022126922F0010273
:103BE0004FF0E0231A6100229A61704764000020C0
:103BF00010B500F0C7F800F039F810BD10B500F0AE
:103C0000EFFD4FF480710F48FEF7FEFB0220FFF737
:103C1000C9FF4FF480710B48FEF7F8FB00F0D0FDB0
:103C20000520FFF7BFFF4FF480710648FEF7E3FB66
:103C300008B1012400E000244FF4FA70FFF7B2FF4E
:103C4000204610BD0008014070B50026002508E0A0
:103C5000FFF7D4FF0446E00140EA6600C6B2681CE4
:103C6000C5B2082DF4DB304670BD000010B500F081
:103C7000B7FD4FF480710F48FEF7C6FB4FF4167086
:103C8000FFF790FF4FF480710A48FEF7BFFB00F08A
:103C900097FD00BF4FF480710648FEF7ACFB00288B
:103CA000F8D100BF4FF480710248FEF7A4FB002852
:103CB000F8D010BD0008014010B5FFF7D7FFCC20A9
:103CC00000F004F8442000F001F810BD70B504467F
:103CD00000F086FD00250AE004F00106641016B12C
:103CE00000F008F801E000F01BF8681CC5B2082DD0
:103CF000F2DB70BD10B500F073FD4FF48071074822
:103D0000FEF782FB0220FFF74DFF4FF4807103485E
:103D1000FEF77CFB5020FFF745FF10BD0008014077
:103D200010B500F05DFD4FF480710748FEF76CFBA5
:103D30005020FFF737FF4FF480710348FEF766FB12
:103D40000220FFF72FFF10BD0008014070B5FFF7FC
:103D5000B3FF4FF42F70FFF7FFFEFFF749FFCC20B2
:103D6000FFF7B4FFBE20FFF7B1FFFFF76DFF064678
:103D7000FFF76AFF05462C46200204B2A01904B2E0
:103D8000204670BD10B501210420FFF735FA10BDA3
:103D900092B00020119010900F900E9000240025FA
:103DA0000026002780465F4903C9CDE90801FEF7D8
:103DB0005DFFFFF7AFFEFFF76FF808235AA200215F
:103DC0000846FFF7A1F908235BA210210020FFF7A6
:103DD0009BF9FFF7B1F900F051F9FFF709FFFDF783
:103DE000D4FEFEF703F80A20FFF7B6FEFDF794FEB7
:103DF000FEF7CAFEFFF77EFB0CA8FDF7A7FFFEF754
:103E000023F818B90CA8FEF76FFE30B908A8FEF722
:103E1000ADF80CA8FDF79AFF01E0FEF7EFF84A486D
:103E20004A494B4B4B4ACDE900104B494B48FFF7F1
:103E300027FBFEF70FFE74E010A911A8FFF7EAFDBB
:103E40000AA8FDF783FF0AA8FEF74EFE10B90AA8DC
:103E5000FDF77CFF0AA8FEF747FE18B1DDE90A016D
:103E6000CDE90C010EA90FA8FDF7A2FEFFF73EFA5F
:103E7000804635483549364B364ACDE9001036493B
:103E80003648FFF7FDFAFEF70DFE0446FEF756FE34
:103E90000546FEF78BFE48B131480078401C0321EF
:103EA00090FBF1F201FB12002D49087004B90DB12D
:103EB000012000E0002006468EB99DF8440038B18C
:103EC0009DF8440032280ADB9DF84400782806DC7F
:103ED0009DF8400028B19DF840005E2801DA0120DD
:103EE00000E00020074616B1FDF73AFE01E0FDF7BD
:103EF0002DFEFFF7B3FA8246FEF790FA814603A83B
:103F0000A0E8B0049DF840009DF844104346CDE978
:103F1000010900919DF838209DF83C100CA8FEF78F
:103F2000D9F889E764480008536D617274206261B2
:103F30006E6420696E697400506C656173652077EA
:103F40006169742E2E2E0000300000202E0000200B
:103F50002C0000202A00002028000020260000203D
:103F60003800002070B50446FEF7F6FCAE20FEF7E0
:103F7000BFFCFEF73DFD00B119E02046FEF7B8FC9E
:103F8000FEF736FD00B112E0FEF7E6FCAF20FEF7CB
:103F9000AFFCFEF72DFD00B109E00020FEF770FC3C
:103FA0000546FEF745FCFEF7FDFC284670BDFEF712
:103FB000F9FC0020FAE770B505460C46FEF7CCFC8C
:103FC000AE20FEF795FCFEF713FD00B111E0284688
:103FD000FEF78EFCFEF70CFD00B10AE02046FEF76E
:103FE00087FCFEF705FD00B103E0FEF7DBFC0120D6
:103FF00070BDFEF7D7FC0020FAE770B505460C4609
:104000000020FFF7AFFF0120FFF7ACFFFEF7A4FC95
:10401000AE20FEF76DFCFEF7EBFC00B12AE028466F
:10402000FEF766FCFEF7E4FC00B123E0FEF794FC2B
:10403000AF20FEF75DFCFEF7DBFC00B11AE00120CB
:10404000FEF71EFC20700120FEF71AFC60700120B4
:10405000FEF716FCA0700120FEF712FCE0700120B4
:10406000FEF70EFC20710020FEF70AFC6071FEF7DF
:1040700099FC00BFFEF796FC70BD000008B5012159
:104080000820FFF7B9F84FF48040ADF80000482051
:104090008DF8030069461A48FEF722F9FEF7A8FBDF
:1040A00000F030F8C0210220FFF785FF0021032037
:1040B000FFF781FF00210420FFF77DFF002105208D
:1040C000FFF779FF00210620FFF775FF0F21082079
:1040D000FFF771FF03210920FFF76DFF27210A2059
:1040E000FFF769FF24210C20FFF765FF24210D2035
:1040F000FFF761FF7F211020FFF75DFF08BD000083
:10410000000C014010B540210920FFF754FF402169
:104110000920FFF750FF10BD2DE9F84705460C4672
:1041200016461F46DDE90A9ADDF824803B463246F2
:1041300021462846CDF8008000F090FA4B463246E2
:104140002146284600F0C7FA2068504501DA206869
:1041500000E050462060BDE8F88700002DE9FF4FE1
:10416000C6B08846994600204590002406E046984F
:1041700050F82410459808444590641C4445F6DBEB
:104180004598B0FBF8F04590002408E0469850F8B8
:1041900024104598081AFE4941F82400641C44453F
:1041A000F4DB002417E0FA4850F824100246601CA3
:1041B00052F820000144A01C52F820000144E01CE9
:1041C00052F820000F183846F91707EB9171891043
:1041D00042F82410641CB4F5F87FE4DB00240AE004
:1041E000EB49601C51F8200051F82410401AE949AD
:1041F00041F82400641CB4F5F77FF1DD00240EE0E3
:10420000E44951F824200B46611C53F82110501842
:1042100000EBD07149101A4642F82410641CB4F522
:10422000F77FEDDB00251BE0002043902C460BE0E0
:10423000D84850F82410601BD74A32F81020439811
:1042400001FB12004390641C681D8442F0DB40F2C5
:104250007A41439890FBF1F0CE4941F825006D1C5E
:10426000B5F5F47FE0DD00204190002410E0C9485E
:1042700050F82400002803DDC64850F8240003E06D
:10428000C44850F824004042419908444190641CBD
:10429000B4F5F77FEBDD40F2EF11419890FBF1F0C0
:1042A000419005210822419840F2EF13CDE9012108
:1042B0000090B84A40A912A8FFF72EFF00201190E5
:1042C0004098022821DB01240BE012A850F82410AA
:1042D000601E12AA52F82000091A11980844119081
:1042E000641C40988442F0DB4098401E119991FB79
:1042F000F0F0119041F27071119891FBF0F1549827
:10430000016001215598017005E0A44954980160AD
:10431000002155980170002407E012A850F82400ED
:10432000801C30A941F82400641C40988442F4DBCE
:1043300000240CE0469850F82400954941F82400E8
:10434000489850F82400964941F82400641C4445DC
:10435000F0DB0020429000242DE00120449030A8A2
:1043600050F824A04FF080703F900AF10500B0F59E
:10437000F77F1FDC0A3800281CDD054611E0844861
:1043800050F825103F9881420ADA449808B100207D
:1043900044907F4850F825003F9021A840F82450D1
:1043A0006D1C0AF105008542E9DB449810B942987A
:1043B000401C4290641C40988442CEDB4298022804
:1043C00008DA7648C9F800000021539801704AB015
:1043D000BDE8F08F00242EE06D4951F824200B46F3
:1043E000611C53F821100A44A11C53F821100A44FF
:1043F000E11C53F821105018C11700EB917189107E
:104400001A4642F82410664951F824200B46611CD4
:1044100053F821100A44A11C53F821100A44E11C4E
:1044200053F821105018C11700EB917189101A46EA
:1044300042F82410641CB4F5F87FCDDB0020049012
:104440000026002404E0002005A941F82400641C93
:10445000052CF8DB00240DE021A850F82400B0F56D
:10446000FA7F06DD4D48C9F800000021539801701D
:10447000ADE7641C42988442EEDB0024AFE04FF0CD
:104480007F400D900C9021A9601C51F8200051F83C
:104490002410401A0A2879DD21A850F8245016E08B
:1044A0003B4850F825100C98814204DD384850F8FC
:1044B00025000C900A953A4850F825100D98814235
:1044C00004DD374850F825000D900B956D1C21A98F
:1044D000601C51F82000A842E2DC601C51F820006A
:1044E0002F4951F8200021A951F824102C4A52F8E4
:1044F0002110401A21A951F824200B99891A484308
:10450000109021A9601C51F8200051F82410411A84
:10451000109890FBF1F021A951F82410204A52F88C
:1045200021100844109011460B9851F82010109853
:10453000081A109021A9601C51F82000144951F864
:10454000200021A951F82410114A52F82110401AD4
:1045500021A951F824200A99891A48430F9021A9CA
:10456000601C51F8200051F82410411A0F9890FB5C
:10457000F1F021A951F82410054A52F821100844FD
:104580000F9011460B9851F820100BE026E0000028
:10459000DC1700201C1000206C48000819FCFFFFED
:1045A000AC1F00200F98081A0F900C9910984843E0
:1045B000C01103900D990F984843C711002F0DDDCE
:1045C000052E0BDA039848B1039800EB80008000B9
:1045D00090FBF7F005A941F82600761C641C429870
:1045E000401EA0423FF74BAF314605A800F0ACF8A3
:1045F000304606EBD0714FEA610BBBF1010F0CDDC9
:10460000ABF1010105AA52F8211052F82B208818AD
:1046100000EBD0714910049103E005A850F82B007D
:104620000490049802280DDD0498B8280ADA094994
:104630000498085C0E900E98C9F800000121539868
:10464000017005E00448C9F800000021539801708A
:1046500000BFBCE6AA48000819FCFFFFF0B50546FC
:104660001C46059E012000270F6030E052F82070A4
:10467000B7422BDD52F820C0471E52F82770BC45C8
:1046800024DD012300E05B1CC718A74207DA52F8BB
:10469000207000EB030C52F82CC06745F3D052F8A1
:1046A000207000EB030C52F82CC067450CDD0F683E
:1046B0000F2F09DAD1F800C00CF101070F6045F89F
:1046C0002C005F1C384402E0184400E0401C671EC8
:1046D0008742CBDCF0BD2DE9F04F05460C469246F3
:1046E000984629465046226800F049F84FF0FF36B8
:1046F00021E0D4F800B0701C2060771C18E055F859
:104700002710701C10B94FF0FF3001E055F826005B
:10471000A1EB0009C14503DCC8F10000814506DAC0
:1047200055F827102268501C206045F822107F1C85
:104730005F45E4DB761C2068B042DADC284621685D
:1047400000F002F8BDE8F08F30B50C46012213E00E
:1047500050F82230114605E04D1E50F8255040F823
:104760002150491E002904DD4D1E50F825509D4260
:10477000F2DC40F82130521CA242E9DB30BDF0B53A
:1047800003461546012217E051F82240104605E085
:10479000461E51F8266041F82060401E002808DDC2
:1047A00053F82470461E51F8266053F82660B7422D
:1047B000EEDC41F82040521CAA42E5DBF0BD0000CF
:1047C00008B54FF48070ADF8000048208DF8030064
:1047D00069460248FDF784FD08BD0000000801405D
:1047E00008B54FF48070ADF8000010208DF803007C
:1047F00002208DF8020069460148FDF771FD08BDF1
:104800000008014010B500290AD00878002807D018
:1048100005487844FBF740FD002801D0002010BD7A
:104820000248784410BD0000CE0D0000C60D000007
:1048300010B500290AD00878002807D00548784428
:10484000FBF72AFD002801D0002010BD0248784463
:1048500010BD0000BE0D0000B60D0000FCF789B9C8
:10486000FCF7BEBA1A060916030007002900140156
:1048700000021401290000000000000000000000F8
:104880000000000000000000000000000000000028
:104890000000000000000000000000000000000018
:1048A000000000000000000000005F5F5F606060CB
:1048B00061616161616262626262636363636363D7
:1048C00063636464646464646464646464646464AA
:1048D00064646464646463636363636363636262A4
:1048E0006262626261616161606060605F5F5F5EC1
:1048F0005E5E5D5D5D5C5C5C5B5B5A5A5959595804
:10490000585757565655555454535252515150506A
:104910004F4E4E4D4C4C4B4A4A49484847464545F8
:104920004443424241403F3E3E3D3C3B3A393838A9
:1049300037363534333231302F2E2D2C2B2A29287F
:10494000272625242322211F1E1D1C1B1A1917167A
:1049500015141311100F0E0C0B0A0907060503029C
:104960000100000000000000000000000000000046
:104970000000000000F800000000000000333000DC
:10498000000000160E00160E0000000000000000DF
:10499000000040C07840C0784000043F04043F0459
:1049A0000400007088FC08300000001820FF211E61
:1049B0000000F008F000E018000000211C031E2198
:1049C0001E0000F00888700000001E212324192713
:1049D0002110000000160E00000000000000000082
:1049E0000000000000E0180402000000000718208A
:1049F000400000020418E0000000004020180700FA
:104A00000000404080F0804040000202010F01029F
:104A10000200000000F0000000000101011F010180
:104A20000100000000000000000000B07000000065
:104A30000000000000000000000000010101010171
:104A40000101000000000000000000303000000004
:104A500000000000000080601804006018060100DB
:104A6000000000E010080810E000000F10202010E7
:104A70000F00001010F8000000000020203F202050
:104A800000000070080808887000003028242221E7
:104A9000300000300888884830000018202020119D
:104AA0000E000000C02010F8000000070424243F7E
:104AB000240000F808888808080000192120201127
:104AC0000E0000E0108888180000000F112020114F
:104AD0000E0000380808C83808000000003F000039
:104AE00000000070880808887000001C2221212224
:104AF0001C0000E010080810E00000003122221124
:104B00000F00000000C0C0000000000000303000B6
:104B10000000000000C0C0000000000080B0700075
:104B2000000000008040201008000001020408106E
:104B3000200040404040404040000404040404047D
:104B4000040000081020408000000020100804022B
:104B50000100007048080808F0000000003036012D
:104B60000000C030C828E810E000071827242314EC
:104B70000B000000C038E0000000203C23020227A8
:104B8000382008F8888888700000203F20202011F5
:104B90000E00C03008080808380007182020201030
:104BA000080008F808080810E000203F2020201026
:104BB0000F0008F88888E8081000203F20202320F4
:104BC000180008F88888E8081000203F200003003B
:104BD0000000C03008080838000007182020221EF6
:104BE000020008F808000008F808203F2101012110
:104BF0003F20000808F8080800000020203F20207F
:104C0000000000000808F8080800C08080807F00CD
:104C1000000008F888C028180800203F2001263826
:104C2000200008F8080000000000203F202020207D
:104C3000300008F8F800F8F80800203F003F003F77
:104C4000200008F830C00008F808203F20000718AE
:104C50003F00E01008080810E0000F10202020108E
:104C60000F0008F808080808F000203F21010101A2
:104C70000000E01008080810E0000F182424385045
:104C80004F0008F8888888887000203F2000030CB7
:104C900030200070880808083800003820212122C0
:104CA0001C00180808F8080818000000203F200021
:104CB000000008F808000008F808001F2020202045
:104CC0001F000878880000C83808000007380E0167
:104CD0000000F80800F80008F800033C0700073C53
:104CE0000300081868808068180820302C03032C03
:104CF00030200838C800C83808000000203F2000D5
:104D0000000010080808C838080020382621202094
:104D10001800000000FE020202000000007F404078
:104D20004000000C30C00000000000000001063808
:104D3000C00000020202FE000000004040407F0070
:104D400000000020100804081020000000000000EF
:104D50000000000000000000000080808080808053
:104D60008080000204080000000000000000000035
:104D70000000000080808080000000192422222290
:104D80003F2008F8008080000000003F1120201123
:104D90000E000000008080800000000E1120202006
:104DA0001100000000808088F800000E1120201003
:104DB0003F200000808080800000001F22222222ED
:104DC0001300008080F0888888180020203F202071
:104DD00000000000808080808000006B9494949399
:104DE000600008F8008080800000203F2100002043
:104DF0003F2000809898000000000020203F2020E5
:104E00000000000000809898000000C08080807F33
:104E1000000008F8000080808000203F24022D3030
:104E20002000000808F8000000000020203F20209B
:104E300000008080808080808000203F20003F2014
:104E4000003F008080008080000000203F21002083
:104E50003F200000808080800000001F2020202054
:104E60001F00808000808000000080FFA1202011B2
:104E70000E000000008080808000000E112020A025
:104E8000FF80808080008080800020203F212000E3
:104E900001000000808080808000003324242424CE
:104EA0001900008080E0808000000000001F2020AA
:104EB00000008080000000808000001F2020201063
:104EC0003F20808080000080808000010E30080636
:104ED000010080800080008080800F300C030C3047
:104EE0000F0000808000808080000020312E0E3175
:104EF0002000808080000080808080818E70180675
:104F0000010000808080808080000021302C2221E0
:104F1000300000000000807C020200000000003F22
:104F2000404000000000FF00000000000000FF0003
:104F300000000002027C800000000040403F0000B2
:104F40000000008040408000008000000000000160
:104F500001000000000000000000002F0000000021
:104F60000700070000147F147F1400242A7F2A12F0
:104F700000231308646200364955225000000007E0
:104F8000000000001C224100000041221C0000140F
:104F9000083E08140008083E0808000000A0600051
:104FA00000080808080800006060000000201008E1
:104FB0000402003E5149453E0000427F400000424D
:104FC00061514946002141454B31001814127F10B0
:104FD000002745454539003C4A49493000017109DF
:104FE000050300364949493600064949291E000093
:104FF000363600000000563600000008142241003A
:105000000014141414140000412214080002015169
:105010000906003E4955592E007C1211127C007F72
:1050200049494936003E41414122007F4141221C0D
:10503000007F49494941007F09090901003E414972
:10504000497A007F0808087F0000417F4100002066
:1050500040413F01007F08142241007F4040404012
:10506000007F020C027F007F0408107F003E414158
:10507000413E007F09090906003E4151215E007F43
:10508000091929460046494949310001017F0101BA
:10509000003F4040403F001F2040201F003F40385D
:1050A000403F00631408146300070870080700619C
:1050B0005149454300007F4141000002040810208F
:1050C000000041417F000004020102040040404012
:1050D0004040000001020400002054545478007F36
:1050E0004844443800384444442000384444487F0D
:1050F00000385454541800087E0901020018A4A472
:10510000A47C007F080404780000447D4000004037
:1051100080847D00007F102844000000417F400013
:10512000007C04180478007C0804047800384444A7
:10513000443800FC242424180018242418FC007C83
:105140000804040800485454542000043F444020FC
:10515000003C4040207C001C2040201C003C403093
:10516000403C004428102844001CA0A0A07C00441F
:1051700064544C440000087F41000000007F0000A0
:105180000000417F0800000804081008EFBC8C00F4
:10519000000000000000000000000000000000000F
:1051A000000058380000000000000000000000006F
:1051B000E38082000000000000000000000000000A
:1051C0000000000000001824241800000000000067
:1051D00000000000E6B8A9001060028C0000FE92FA
:1051E00092929292FE00000004047E01407E4242B0
:1051F0007E427E42427E4000E6B9BF001060028CD3
:1052000000FE929292929292FE00000004047E01AF
:105210004448507F40407F5048444000E5BAA600D3
:105220000000FC242424FC252624FC24242404003F
:1052300040308F80844C55252525554C808080003A
:10524000E58589004040424458C0407F40C05048F6
:10525000464040008080402018070000003F40404A
:1052600040407800E785A70000FE424242FE00422F
:10527000A29E82A2C2BE0000806F080828CF000054
:105280002FC8080828CF0000E5BCBA0002E222229D
:105290003E00809E9292F292929E80000043824253
:1052A0003E40474444447F444454E700E7839F0022
:1052B000807000FF1008FE424242FA424242FE0065
:1052C000806018070810FF50484641424C40FF00DC
:1052D000E99BBE00100C055555D5057F0555555564
:1052E00005140C001010108AA96B352525ABE908B0
:1052F00010101000E6B593001060028C201808C84A
:1053000038CF08082898000004047E01040201FF39
:105310004021060A11204000EFBC9A000000000066
:105320000000000000000000000000000000363611
:10533000000000000000000000000000E284830084
:10534000060909E6F80C040202020202041E00002B
:10535000000000071F302040404040402010000067
:10536000E5BF83000000800000E002041800000098
:1053700040800000100C0300003F40404040407857
:1053800000010E00E78E87000014A4442434AD66AB
:1053900024940444A414000008090808090909FD1C
:1053A00009090B0808090800E8A180000000F808B6
:1053B00008F80C0B08F80808F800000040407F408F
:1053C000407F4040407F40407F404000E6B0A70023
:1053D0000824236AAA2AAA6A2A2A2AEA02020000C0
:1053E0001011151515FF15151511100F3040F80087
:1053F000E698AF000000007F494949494949497F83
:10540000000000008141211D214181FF8989898996
:1054100089818100E590A60000028282422212FA70
:105420000622224242820000010100FC444444451D
:10543000444444FC00000100E8B78C00003E22E236
:10544000223E403C1010FF1010100000407E403FF4
:1054500022228041310D030D31418100E58092000F
:105460008060F80704645CC4644400F800FF000036
:105470000000FF002062221F1212004F807F0000F8
:1054800000000000FF0101013109090909897101CA
:10549000010101FFFF808080808080968180808074
:1054A000808080FFFF01818181FD8991A1C1FD8103
:1054B000818101FFFF808080809F888482819F801E
:1054C000808080FF00000000000000003031323397
:1054D0003435363738394142434445464030580028
:1054E000303132333435363738396162636465665A
:1054F00040307800040000080000000000000002B6
:10550000000100001030313233343536373839611C
:105510006263646566787000303132333435363713
:10552000383941424344454658500000024000008B
:10553000000000A00000000005400000000000C8BE
:10554000000000000C4000000000409C0000000033
:10555000194000000020BCBE0000000034400000E4
:10556000BFC91B8E00000004B5400000504BCFD0D7
:105570006607E2CF010000006C4100003E8251AAA4
:10558000DFEEA73401000000D9420000DCB5A0E244
:105590003A301F97FFFFFFFFB4450000FD25A0C86C
:1055A000E9A3C14FFFFFFFFFFF3F000000000080A5
:1055B00000000000FF3F000000000080000000002D
:1055C0000C570008000000207C00000028010008A3
:1055D000885700087C000020643100004401000866
:1055E0001C00000043000000F8FFFFFF0C0000005B
:1055F0000E0000000F0000002E000000100100004F
:1056000043000000F8FFFFFF0040404040404040A2
:105610004040414141414140404040404040404085
:105620004040404040404040400502020202020229
:105630000202020202020202022020202020202078
:10564000202020020202020202029090909090908C
:10565000101010101010101010101010101010104A
:1056600010101010020202020202888888888888BE
:1056700008080808080808080808080808080808AA
:1056800008080808020202024000000000000000B2
:10569000000000000000000000000000000000000A
:1056A00000000000000000000000000000000000FA
:1056B00000000000000000000000000000000000EA
:1056C00000000000000000000000000000000000DA
:1056D00000000000000000000000000000000000CA
:1056E00000000000000000000000000000000000BA
:1056F00000000000000000000000000000000000AA
:1057000000000000000000000000000000A24A04A9
:105710000000000000000000010203040607080961
:10572000F401000000000000000000000000000084
:105730000000000000000000000000000000000069
:105740000000000000000000000000000000000059
:105750000000000000000000000000000000000049
:105760000000000000000000000000000000000039
:105770000000000000000000010203040102030415
:085780000607080902040608EF
:04000005080000ED02
:00000001FF
